:020000040800F2
:1000000000000520ED1A0008BD1A0008BF1A0008FC
:10001000C11A0008C31A0008C51A00080000000031
:10002000000000000000000000000000C71A0008E7
:10003000C91A000800000000CB1A0008CD1A0008F9
:100040003D1B00083D1B00083D1B00083D1B000830
:100050003D1B00083D1B00083D1B00083D1B000820
:100060003D1B00083D1B00083D1B00083D1B000810
:100070003D1B00083D1B00083D1B00083D1B000800
:100080003D1B00083D1B00083D1B00083D1B0008F0
:100090003D1B00083D1B00083D1B00083D1B0008E0
:1000A0003D1B00083D1B00083D1B00083D1B0008D0
:1000B0003D1B00083D1B00083D1B00083D1B0008C0
:1000C0003D1B00083D1B00083D1B00083D1B0008B0
:1000D0003D1B00083D1B00083D1B00083D1B0008A0
:1000E0003D1B00083D1B00083D1B00083D1B000890
:1000F0003D1B00083D1B00083D1B00083D1B000880
:100100003D1B00083D1B00083D1B00083D1B00086F
:100110003D1B00083D1B00083D1B00083D1B00085F
:100120003D1B00083D1B00083D1B00083D1B00084F
:100130003D1B00083D1B00083D1B00083D1B00083F
:100140003D1B00083D1B00083D1B00083D1B00082F
:100150003D1B00083D1B00083D1B00083D1B00081F
:100160003D1B00083D1B00083D1B00083D1B00080F
:100170003D1B00083D1B00083D1B0008000000005F
:100180003D1B00083D1B00083D1B00083D1B0008EF
:100190003D1B00083D1B00083D1B00083D1B0008DF
:1001A0003D1B00083D1B00083D1B00083D1B0008CF
:1001B0003D1B00083D1B00083D1B00083D1B0008BF
:0801C0003D1B00083D1B000877
:1001C80010B5054C237833B9044B13B10448AFF389
:1001D80000800123237010BD0C00002000000000E7
:1001E800981B000808B5034B1BB103490348AFF33C
:1001F800008008BD0000000010000020981B0008C7
:1002080053B94AB9002908BF00281CBF4FF0FF3175
:100218004FF0FF3000F07AB9ADF1080C6DE904CE6B
:1002280000F006F8DDF804E0DDE9022304B07047C9
:100238002DE9F0478C460D460446089E002B51D107
:100248008A4217466DD9B2FA82FEBEF1000F0BD072
:10025800CEF1200C01FA0EF520FA0CFC02FA0EF78A
:100268004CEA050C00FA0EF44FEA174A250CBCFBC1
:10027800FAF81FFA87F90AFB18CC45EA0C4508FB7F
:1002880009F3AB420AD9ED1908F1FF3280F0238156
:10029800AB4240F22081A8F102083D44ED1AA4B215
:1002A800B5FBFAF00AFB105544EA054400FB09F9CE
:1002B800A14509D9E41900F1FF3380F00A81A1456D
:1002C80040F2078102383C44A4EB090440EA0840A4
:1002D8000021002E61D024FA0EF4002334607360EC
:1002E800BDE8F0878B4207D9002E54D0002186E85C
:1002F80021000846BDE8F087B3FA83F1002940F0F1
:100308008E80AB4202D3824200F2FA80841A65EBF7
:1003180003050120AC46002E3FD086E81010BDE84A
:10032800F08712B90127B7FBF2F7B7FA87FEBEF1DB
:10033800000F34D1EB1B3A0C1FFA87FC0121B3FBE9
:10034800F2F8250C02FB183345EA03450CFB08F3C9
:10035800AB4207D9ED1908F1FF3002D2AB4200F2E7
:10036800D1808046ED1AA3B2B5FBF2F002FB10551E
:1003780043EA05440CFB00FCA44507D9E41900F145
:10038800FF3302D2A44500F2B8801846A4EB0C044F
:1003980040EA08409DE731463046BDE8F087CEF197
:1003A800200405FA0EF307FA0EF720FA04F83A0CBF
:1003B80025FA04F448EA0308B4FBF2F14FEA1845B9
:1003C80002FB11441FFA87FC45EA044501FB0CF3C4
:1003D800AB4200FA0EF409D9ED1901F1FF3080F0B3
:1003E8008A80AB4240F2878002393D44EB1A1FFAFB
:1003F80088F5B3FBF2F002FB103345EA034500FB36
:100408000CF3AB4207D9ED1900F1FF386FD2AB42BC
:100418006DD902383D44EB1A40EA01418FE7C1F13A
:10042800200722FA07F88B4005FA01F448EA03038B
:1004380020FA07FE4FEA134CFD404EEA040EB5FBC6
:10044800FCF94FEA1E440CFB19551FFA83F844EADD
:10045800054509FB08F4AC4202FA01F200FA01FA78
:1004680008D9ED1809F1FF3043D2AC4241D9A9F1BE
:1004780002091D442D1B1FFA8EFEB5FBFCF00CFB78
:1004880010554EEA054400FB08F8A04507D9E418C2
:1004980000F1FF3529D2A04527D902381C4440EA8B
:1004A8000940A4EB0804A0FB02894C45C6464D460A
:1004B80015D312D056B1BAEB0E0364EB050404FA57
:1004C80007F7CB401F43CC40376074600021BDE87C
:1004D800F0871846F8E69046E0E6C245EAD2B8EB5F
:1004E800020E69EB03050138E4E72846D7E74046E2
:1004F80091E78146BEE7014678E702383C4445E784
:10050800084608E7A8F102083D442BE7704700BFFA
:1005180038B50E4B05460E4A18784FF47A73B3FB7C
:10052800F0F31068B0FBF3F000F07EF8044658B919
:100538000F2D09D8024629464FF0FF3000F03CF84D
:10054800044B20461D6038BD012038BD0000002046
:10055800080000200400002008B5032000F01AF865
:100568000020FFF7D5FF01F001FA002008BD0000C8
:10057800034A044B11681B780B441360704700BF93
:1005880028FC032000000020014B1868704700BFBA
:1005980028FC0320074A0002D36800F4E06023F433
:1005A800E0631B041B0C43F0BF6343F400330343B5
:1005B800D360704700ED00E0194B30B5DC68C4F338
:1005C8000224C4F10703251D042B28BF0423062D8C
:1005D8004FF001058CBF033C002405FA03F3002803
:1005E80003F1FF3301EA030101FA04F105FA04F407
:1005F80004F1FF3402EA040242EA01024FEA02125D
:1006080007DB00F16040D2B200F5614080F80023BA
:1006180030BD00F00F00D2B2024B1A5430BD00BFFB
:1006280000ED00E014ED00E00138B0F1807F0AD25F
:10063800064BF021064A5860002082F82310072252
:1006480098601A6070470120704700BF10E000E012
:1006580000ED00E0BFF35F8F044A536A23F4803350
:1006680053620022024B5A60704700BF00ED00E061
:1006780090ED00E0064A40F00100064B5860536ACE
:1006880043F480335362BFF34F8FBFF36F8F7047CC
:1006980000ED00E090ED00E04378124A10B5936059
:1006A8000178D9B14368D360C37A047B1B0643EA57
:1006B80004730B43817A43EAC143417B43EA814394
:1006C800817B43EA4143C17B43EA0143417A43EAE0
:1006D8000123017A43EA4103136110BDD16011611E
:1006E80010BD00BF90ED00E02DE9F04F0B6885B01C
:1006F800DFF8C081019300236C4ADFF8BC91012424
:10070800019D9C402540AC4240F0B6804C684FEAC1
:10071800430E24F0100C0CF1FF36012E12D80326DC
:10072800876806FA0EF627EA0607CE6806FA0EF676
:100738003E438660C4F3001647689E4027EA0507D3
:100748003E4346600326C768BCF1020F06FA0EF660
:100758006FEA060607EA060A8F6807FA0EF747EAFD
:100768000A07C76016D14FEAD30A03F0070B4FF008
:100778000F0C00EB8A0A4FEA8B0BDAF820700CFAA0
:100788000BFC27EA0C0C0F6907FA0BF747EA0C0772
:10079800CAF8207007683E4004F0030707FA0EFE07
:1007A8004EEA06060660E60066D5D8F8446023F0EF
:1007B800030703F0030E4FF00F0C46F4804607F1D1
:1007C80080474FEA8E0EC8F8446007F59C37D8F882
:1007D800446006F480460396039E0CFA0EF6D7F89A
:1007E80008A02AEA060C324EB0424CD006F58066C4
:1007F800B0424AD006F58066B04248D006F5806619
:10080800B04246D006F58066B04244D0484544D050
:1008180006F50066B04242D006F58066B04240D088
:1008280006F58066B0423ED006F58066B04214BF39
:100838000A26092606FA0EF614F4803F46EA0C0644
:10084800BE606FEA050716680CBF3E402E4314F4DD
:10085800003F166056680CBF3E402E4314F4801FBC
:10086800566096680CBF3E402E43A4029660D66838
:1008780054BF3E402E43D6600133102B7FF43FAF68
:1008880005B0BDE8F08F0026D4E70126D2E702269E
:10089800D0E70326CEE70426CCE70526CAE70626D6
:1008A800C8E70726C6E70826C4E700BF003C0140A2
:1008B8000000024000380240001402400AB1816181
:1008C80070470904FBE7D2014FF0000C2DE9F04313
:1008D800843204684F68A318E568D1F800E05868C6
:1008E800C5F30B450EF10106D1F8189000F47040DD
:1008F8003D445860E068C0F30B40304440EA05408E
:10090800CD685860E068C0F30A000544986800F4B0
:10091800704098608868E6680130C6F30A0630447B
:100928000E6940EA05409860186920F007001861D0
:100938001E619D6991F8320091F83180C3F818C0A2
:1009480091F8305045EA096545EA082545EA004529
:100958009D61586920F0FF00586148695861D8695D
:1009680020F4E06020F00700D861086ACD690543EB
:10097800DD61986A486AC3F828C098621EB3012EE0
:1009880023D0B01E022822D9072E0CBF0220012036
:10099800DD6AA7EB0E0705F0E025DD628D6AC96AFE
:1009A80045437843033040EA0540D862186B20F489
:1009B800FF6020F0070018631963A35843F0010390
:1009C800A350BDE8F0830420E2E70320E0E702201B
:1009D800DEE7000038B50446002863D090F8A1305F
:1009E80003F0FF021BB980F8A02000F0D7FF022314
:1009F800A06884F8A13023689A6922F070429A614D
:100A0800626899690243E0680243206902436069A9
:100A18000A4325499A619A680A409A609A6842EAA4
:100A28000042A0690243E0699A60DA680A40DA6025
:100A3800DA6842EA0042206A0243606ADA601A69A8
:100A48000A401A611A6942EA0042A06A02431A611E
:100A58005A6911405961E16A5A6942EA0142216BB7
:100A68000A435A61D96A94F8360001F07F4194F834
:100A78003550D962D96A94F834200A4342EA0522EB
:100A880042EA00420020DA625A6B42F006025A63D8
:100A98009A6942F001029A610123C4F8A40084F81B
:100AA800A13038BD012038BD00F800F0F8B590F845
:100AB800A03006468E469446012B4FF002001DD00A
:100AC80034240D4686F8A100012704FB026486F849
:100AD800A07038340FCD0FC40FCD0FC40FCD0FC485
:100AE8002B683046624671462360FFF7ECFE336898
:100AF80000205F6286F8A17086F8A000F8BD90F823
:100B0800A030012B4FF0020370B5044615D080F8D1
:100B1800A13034230125534380F8A050C618F1654D
:100B280003F138010144FFF7CEFE236800205D621F
:100B380084F8A15084F8A00070BD184670BD00006C
:100B4800194B37B51A6C194C42F080521A641B6C59
:100B580003F080530193019B236843F4803323609F
:100B6800FFF712FD05466368DA030CD5236843F4E2
:100B780000332360FFF708FD0C4C054663689B03B0
:100B88000AD5002006E0FFF7FFFC401BB0F57A7F8E
:100B9800E9D9032003B030BDFFF7F6FC401BB0F5E0
:100BA8007A7FEBD9F5E700BF0038024000700040BB
:100BB8002DE9F341044608B901203FE00368D8074E
:100BC80010D42368990760D42368190700F1A58019
:100BD80023685A0700F1C680A069002840F03081D8
:100BE80000202BE0944B9A6802F00C02042A07D0EC
:100BF8009A6802F00C02082A0AD15B685A0207D5E3
:100C08008D4B1B689B03DCD56368002BD9D1D3E7D8
:100C18006368894DB3F5803F13D12B6843F4803363
:100C28002B60FFF7B1FC844D06462B689F03C8D4A0
:100C3800FFF7AAFC801B6428F7D9032002B0BDE89F
:100C4800F0819BB92B6823F480332B602B6823F445
:100C580080232B60FFF798FC06462B689803B0D5D5
:100C6800FFF792FC801B6428F7D9E6E7B3F5A02FBD
:100C78002B6803D143F480232B60CEE723F4803321
:100C88002B602B6823F48023CAE76B4B9A6812F019
:100C98000C0F07D09A6802F00C02082A11D15B6881
:100CA80059020ED4644B1A68920702D5E268012AE9
:100CB80082D11A68216922F0F80242EAC1021A6058
:100CC80082E7E3685C4DBBB12B6843F001032B60FE
:100CD800FFF75AFC06462B689F0707D52B68226941
:100CE80023F0F80343EAC2032B606DE7FFF74CFCDF
:100CF800801B0228EFD9A0E72B6823F001032B60A3
:100D0800FFF742FC06462B6898077FF55DAFFFF7B3
:100D18003BFC801B0228F6D98FE76369464D83B1F7
:100D28006B6F43F001036B67FFF72EFC06466B6F92
:100D38009B073FF54DAFFFF727FC801B0228F6D92C
:100D48007BE76B6F23F001036B67FFF71DFC06461B
:100D58006B6F9F077FF53CAFFFF716FC801B0228DF
:100D6800F6D96AE7344B1A6CD00027D41A6C0126DE
:100D780042F080521A641B6C03F080530193019B6C
:100D88002E4D2B68D9051BD5A3682B4D012B27D1D8
:100D98002B6F43F001032B6741F28835FFF7F4FB13
:100DA800254F80463B6F9B073FD5002E3FF414AF7D
:100DB800214A136C23F0805313640DE70026DFE704
:100DC8002B6843F480732B60FFF7DEFB07462B6824
:100DD800DA05D9D4FFF7D8FBC01B6428F7D92CE76C
:100DE800ABB92B6F41F2883823F001032B672B6FC7
:100DF80023F004032B67FFF7C7FB07462B6F980701
:100E0800D3D5FFF7C1FBC01B4045F7D915E7052B24
:100E18002B6F03D143F004032B67B9E723F00103D9
:100E28002B672B6F23F00403B5E7FFF7ADFBA0EBAF
:100E38000800A842B6D900E7003802400070004018
:100E4800384DAB6803F00C03082B41D02B680228FF
:100E580023F080732B602ED1FFF796FB06462B6894
:100E6800990122D4226AE3691343626A43F000536A
:100E780043EA8213E26A43EA0263A26A294C5208EF
:100E8800013A43EA02436B602B6843F080732B609E
:100E9800FFF77AFB054623689A013FF5A1AEFFF7F5
:100EA80073FB401B0228F6D9C7E6FFF76DFB801BD2
:100EB8000228D4D9C1E6FFF767FB04462B689B01DB
:100EC8007FF58EAEFFF760FB001B0228F6D9B4E66B
:100ED80001286B683FF4B2AE03F48002E1698A42EC
:100EE8007FF46AAE03F03F02216A8A427FF464AE5F
:100EF80047F6C072616A1A40B2EB811F7FF45CAE9C
:100F0800A26A03F440315208013AB1EB024F7FF470
:100F180053AEE26A03F07063B3EB026F14BF0120B3
:100F280000208BE600380240134908B58B6803F0AF
:100F38000C03042B03D0082B03D0104808BD10481D
:100F480008BD4A684B68496802F03F0213F4800301
:100F5800C1F388111ABF0A4800230848A1FB000101
:100F6800FFF74EF9044B5B68C3F3014301335B00A1
:100F7800B0FBF3F008BD00BF003802400024F400C5
:100F880040787D012DE9F0410D46044610B9012055
:100F9800BDE8F081464A136803F00F038B4229D35A
:100FA80021688F0731D4C80744D4414A136803F035
:100FB8000F039D4268D32268510771D4130707D5E0
:100FC8003C4A2169936823F4604343EAC103936070
:100FD800FFF7AAFF374B384A9B68C3F30313D35C68
:100FE800D840364B1860364B1868FFF791FA002046
:100FF800BDE8F081136823F00F030B4313601368F7
:1010080003F00F039942C2D1CAE711F0040F294B2C
:1010180003D09A6842F4E0529A600E0703D59A68A2
:1010280042F460429A609A68A06822F0F002024393
:101038009A60B8E761681F4B01291A681CD112F43D
:10104800003FA4D09A6841F288381A4E22F0030271
:101058000A439A60FFF798FA0746B368626803F094
:101068000C03B3EB820FA0D0FFF78EFAC01B4045EC
:10107800F3D90320BDE8F081022902D112F0007FE4
:10108800DFE712F0020FDCE7136823F00F032B43AE
:101098001360136803F00F039D427FF478AF8AE76B
:1010A8000449E0688B6823F4E05303438B6085E7C9
:1010B800003C024000380240B01B00080800002035
:1010C800040000202DE9F7430268044612F00106E7
:1010D8000BD0B84B996821F400019960466B996868
:1010E8003143B6FA86F67609996012F4002512D0D3
:1010F800B049E56BD1F88C30B5F5801F23F4401367
:1011080008BF012643EA050316BFB5FA85F5002591
:101118006D09C1F88C30D10210D5A648216CD0F8E1
:101128008C30B1F5800F23F4400343EA0103C0F883
:101138008C3000F08581002908BF012512F0807FDE
:1011480018BF0126920631D59A4B9B4F1A6C42F074
:1011580080521A641B6C03F080530193019B3B6817
:1011680043F480733B60FFF70FFA80463B68DB056A
:1011780040F168818F4F3B6F13F4407340F06D81ED
:10118800236B03F44072B2F5407F8A4A40F08B81AA
:10119800916823F0704021F4F81120F44070014365
:1011A8009160C3F30B03116F0B4313672368DA06CF
:1011B8000CD5804AD2F88C1021F08071C2F88C10BE
:1011C800D2F88C10A06B0143C2F88C105F0408D5CC
:1011D8007849606ED1F8902022F440320243C1F879
:1011E8009020180408D57349A06ED1F8902022F4F5
:1011F80040220243C1F89020D90308D56D49E06E1A
:10120800D1F8902022F440120243C1F890209A03AA
:1012180008D56849206FD1F8902022F44002024393
:10122800C1F890205F0608D56249606CD1F890201B
:1012380022F003020243C1F89020180608D55D4940
:10124800A06CD1F8902022F00C020243C1F8902043
:10125800D90508D55749E06CD1F8902022F0300222
:101268000243C1F890209A0508D55249206DD1F85B
:10127800902022F0C0020243C1F890205F0508D5F3
:101288004C49606DD1F8902022F440720243C1F8B5
:101298009020180508D54749A06DD1F8902022F470
:1012A80040620243C1F89020D90408D54149E06D55
:1012B800D1F8902022F440520243C1F890209A04B9
:1012C80008D53C49206ED1F8902022F440420243D0
:1012D800C1F890205F0208D53649A06FD1F8902058
:1012E80022F080620243C1F8902098020CD5314860
:1012F800E16FD0F89020B1F1006F22F0006208BFD2
:1013080001250A43C0F8902013F0080F18BF0125E3
:10131800590308D52749606FD1F8902022F0407210
:101328000243C1F890201A0209D52249D4F8800056
:10133800D1F8902022F080520243C1F89020012E6B
:1013480000F0B580B3F1007F00F0B180012D75D1B8
:10135800184D2B6823F080532B60FFF715F90646CC
:101368002B689F0000F1278121680E0301D5E36BEC
:101378001BB1CD0222D5236C03BB0E4AD2F88830AC
:10138800D2F8880003F4403300F0E040034360697A
:1013980043EA8013A06943EA0063C2F88830D2F8B0
:1013A8008C30A06A23F4F853013843EA0023C2F8CA
:1013B8008C3003E00038024000700040880215D5E8
:1013C800E36FB3F1006F11D1824AD2F88830D2F8B6
:1013D800880003F0706300F0E0400343606943EA6B
:1013E8008013206A43EA0043C2F888300A0719D5F7
:1013F8007849D1F88820D1F8883002F0706203F477
:1014080040331343626943EA8213E26943EA027391
:10141800C1F88830D1F88C30E26A23F440331343A2
:10142800C1F88C306B4C236843F080532360FFF77E
:10143800ABF8054623689B0040F1C480002009E012
:1014480001267BE6FFF7A0F8A0EB080064287FF6EA
:101458008DAE032003B0BDE8F083226B02F4407226
:1014680093423FF48DAE3B6F3A6F23F4407342F4DE
:1014780080323A673A6F22F480323A673B673B6FB3
:10148800D8077FF57DAEFFF77FF841F288398046AF
:101498003B6F99073FF574AEFFF776F8A0EB0800AD
:1014A8004845F5D9D5E7916821F4F81178E6494E11
:1014B800336823F080633360FFF766F807463368C4
:1014C8001B0172D42268D70712D5636B83B9D6F88B
:1014D8008430D6F8841003F4403301F070610B4374
:1014E800616843EA8113A16843EA0173C6F884304E
:1014F800160303D5E36BB3F5801F05D0D0021ED5C4
:10150800236CB3F5800F1AD13249D1F88430D1F861
:10151800840003F4403300F0E0400343606843EA8A
:101528008013E06843EA0063C1F88430D1F88C0086
:10153800636A20F01F00013B0343C1F88C30D101DE
:1015480011D52449D1F88430D1F8840003F07063B0
:1015580000F0E0400343606843EA8013206943EAEF
:101568000043C1F8843092010DD5236962681B04D9
:1015780043EA8213E26843EA0263A26843EA027319
:10158800144AC2F88430134E336843F080633360E2
:10159800FEF7FAFF074633681B013FF5D7AEFEF7A3
:1015A800F3FFC01B6428F6D953E7FEF7EDFFC01B15
:1015B800642884D94DE7FEF7E7FF801B64287FF68F
:1015C800CFAE46E7FEF7E0FF401B64287FF632AF58
:1015D8003FE700BF0038024010B5044690B1437998
:1015E80003F0FF0213B9027100F04EFA22680223D9
:1015F80000206371136843F00403136001236371CF
:10160800A06010BD012010BD064980B20B6E4A6E65
:10161800C96D5A430023934200D1704721F8130043
:101628000133F8E72CFC032070B5B4B03022002158
:10163800022407A8012500F0A3FA1422002102A819
:1016480000F09EFA0021842213A800F099FA244B96
:1016580007A800261A6C42F080521A641B6C03F02B
:1016680080530093009B1F4B1A6842F440421A6053
:101678001B68079503F440430D9411940193019B53
:101688004FF4803308934FF480030E9319230F937C
:101698004FF4C873109308231293FFF789FAFFF7E2
:1016A8004FFA0F23062102A802934FF4A053039484
:1016B80005934FF4805304960693FFF763FC0A4B97
:1016C80013A81A941393C023199418934FF0006326
:1016D8001B951D951E963293FFF7F4FC34B070BD30
:1016E800003802400070004008002000F0B595B0B6
:1016F80000211022002407A800F042FAFEF7AAFFF2
:10170800904A012307A8089211228DF81C308DF801
:10171800242003228DF82A308DF827208DF81D40CB
:101728008DF825408DF826408DF828408DF8294001
:101738008DF82B40FEF7B0FF0420FEF79BFFBFF3A8
:101748004F8FBFF36F8F804BC3F85042BFF34F8F5B
:10175800BFF36F8F5A6942F400325A61BFF34F8F5B
:10176800BFF36F8FC3F88440BFF34F8FD3F8802047
:1017780043F6E076C2F3C904C2F34E32A50752011C
:1017880002EA060E2846214640EA0E07013900F112
:101798004040C3F860724F1CF6D1203A12F1200F76
:1017A800EED1BFF34F8F5A6942F480325A61BFF3CA
:1017B8004F8FBFF36F8FFEF7CFFE0024FFF734FF84
:1017C8001422002107A800F0DBF9604B08216048CB
:1017D8001A6B0226012542F001021A631A6B02F005
:1017E80001020192019A1A6B42F400721A631A6B91
:1017F80002F400720292029A1A6B42F480621A632F
:101808001A6B02F480620392039A1A6B42F0400248
:101818001A631A6B02F040020492049A1A6B42F49B
:1018280080721A631A6B02F480720592059A1A6B19
:1018380042F080021A6301221B6B03F080030693B7
:10184800069BFFF73BF8002202214248FFF736F8D3
:1018580001224FF480513F48FFF730F8082307A9C9
:101868003B480793089509940A96FEF73DFF07A998
:1018780038480895079609940A94FEF735FF4FF4FF
:10188800805307A933480793089509940A96FEF7E9
:101898002BFF2146342207A82F4D00F071F92F4B5A
:1018A8002846AC60EC602C6185F8344085F83540FA
:1018B80085F8364085E8180028236B610923AB6159
:1018C8003523EB610B232B6240F215236B6240F248
:1018D8001B13AB6240F23523EB6240F21D132B63FE
:1018E800FFF778F8FF214FF4F0724FF48873284619
:1018F8000C914FF4806108920E91052111922246B5
:101908000F9107A90A931293079409940B960D94C3
:1019180010948DF84C408DF84D408DF84E40FFF7EF
:10192800C5F80F4B0F480360FFF756FE22460E49D5
:101938002846FFF7E4F84FF4FC60FFF765FE204601
:1019480015B0F0BD0000012000ED00E000380240B5
:1019580000280240002002402CFC032000680140BF
:1019680000080650D4FC0320280000200A4B82B04F
:101978001A6C42F080521A641A6C02F0805200927B
:10198800009A5A6C42F480425A645B6C03F48043B8
:101998000193019B02B070470038024070B51422D1
:1019A8008AB0044600210DEB020000F0E9F8226835
:1019B800304B9A425CD103F5504302240E2505A909
:1019C8005A6C00262C4842F080625A645A6C02F025
:1019D80080620092009A1A6B42F400721A631A6BC2
:1019E80002F400720192019A1A6B42F480621A633F
:1019F8001A6B02F480620292029A1A6B42F0400259
:101A08001A631A6B02F040020392039A1A6B42F4AB
:101A180080721A631B6B069403F48073089409950B
:101A28000493049B4FF6FF730593FEF75DFEF723BF
:101A380005A9124805930694079608940995FEF798
:101A480053FE4FF4805305A90D48059309230694C6
:101A5800099307960894FEF747FE4FF4464305A9F5
:101A6800084805930694079608940995FEF73CFEE6
:101A78000AB070BD006801400024024000280240FE
:101A88000018024000200240026882B0074B9A42C8
:101A980009D1074B5A6B42F040025A635B6B03F063
:101AA80040030193019B02B0704700BF0008065035
:101AB800003802407047FEE7FEE7FEE7FEE77047A2
:101AC80070477047FEF754BD054BD3F8882042F4A1
:101AD8007002C3F888204FF000629A60704700BF18
:101AE80000ED00E0DFF834D0002103E00C4B5B5838
:101AF800435004310B480C4B42189A42F6D30B4A18
:101B080002E0002342F8043B094B9A42F9D3FFF75D
:101B1800DBFF00F011F8FFF7E9FD70470000052032
:101B2800D01B0008000000200C0000200C00002042
:101B3800E4FC0320FEE7000070B50D4E0D4CA41B1D
:101B4800A4100025A54209D10B4E0C4C00F020F83A
:101B5800A41BA4100025A54205D170BD56F8253058
:101B680098470135EEE756F8253098470135F2E7F2
:101B7800C81B0008C81B0008C81B0008CC1B0008AD
:101B880002440346934200D1704703F8011BF9E76A
:101B9800F8B500BFF8BC08BC9E467047F8B500BF52
:081BA800F8BC08BC9E46704722
:101BB00000000000000000000102030406070809FD
:081BC00078E6FF7F0100000040
:041BC800ED01000823
:041BCC00C901000843
:0C1BD00001000000100000000024F400E0
:0400000508001AEDE8
:00000001FF
